:03000000020030CB
:100030007400F87400F97404FA7400FBC286C29567
:10004000C296C297C2A7C2A0C2A1C2A275F00112F5
:1000500000E420A01420A10E20A20280F2E82401D6
:10006000F820A2FD80E975F0007C057D321200E4E5
:10007000DDFBDCF7309707C297D2960200853096F9
:1000800004C296D297E5F0B401DFEBB400057B091A
:100090000200A99401FBB405D0EAB401CCE9B40094
:1000A000C8E8B400C4D29780C0EAB400057A05025B
:1000B00000B79401FA80B2E9B4000979097B097AA2
:1000C000050200CD9401F97B097A05809CE8B40013
:1000D0000879007A007B0080909401F879097A050C
:1000E0007B098085C291C292C293D290E812012B03
:1000F000F5B0120176C290C292C293D291E9120178
:100100002BF5B0C2B0120176C290C291C293D292C6
:10011000EA12012BF5B0120176C290C291C292D2BE
:1001200093EB12012BF5B012017622B40105749FF6
:10013000020175B402057425020175B40305740D3E
:10014000020175B404057499020175B4050574497A
:10015000020175B406057441020175B40705741FE8
:10016000020175B408057401020175B4090574092A
:100170000201757403227E027F64DFFEDEFA309591
:0C0180000375F00020A7012275F0012299
:00000001FF
